{
  "contractName": "SmokieJoe",
  "abi": [
    {
      "inputs": [
        {
          "internalType": "address",
          "name": "initialOwner",
          "type": "address"
        },
        {
          "internalType": "address",
          "name": "_devWallet",
          "type": "address"
        },
        {
          "internalType": "address",
          "name": "_vestingVault",
          "type": "address"
        }
      ],
      "stateMutability": "nonpayable",
      "type": "constructor"
    },
    {
      "anonymous": false,
      "inputs": [
        {
          "indexed": true,
          "internalType": "address",
          "name": "owner",
          "type": "address"
        },
        {
          "indexed": true,
          "internalType": "address",
          "name": "spender",
          "type": "address"
        },
        {
          "indexed": false,
          "internalType": "uint256",
          "name": "value",
          "type": "uint256"
        }
      ],
      "name": "Approval",
      "type": "event"
    },
    {
      "anonymous": false,
      "inputs": [
        {
          "indexed": true,
          "internalType": "address",
          "name": "previousOwner",
          "type": "address"
        },
        {
          "indexed": true,
          "internalType": "address",
          "name": "newOwner",
          "type": "address"
        }
      ],
      "name": "OwnershipTransferred",
      "type": "event"
    },
    {
      "anonymous": false,
      "inputs": [
        {
          "indexed": true,
          "internalType": "address",
          "name": "from",
          "type": "address"
        },
        {
          "indexed": true,
          "internalType": "address",
          "name": "to",
          "type": "address"
        },
        {
          "indexed": false,
          "internalType": "uint256",
          "name": "value",
          "type": "uint256"
        }
      ],
      "name": "Transfer",
      "type": "event"
    },
    {
      "inputs": [
        {
          "internalType": "address",
          "name": "owner",
          "type": "address"
        },
        {
          "internalType": "address",
          "name": "spender",
          "type": "address"
        }
      ],
      "name": "allowance",
      "outputs": [
        {
          "internalType": "uint256",
          "name": "",
          "type": "uint256"
        }
      ],
      "stateMutability": "view",
      "type": "function",
      "constant": true
    },
    {
      "inputs": [
        {
          "internalType": "address",
          "name": "spender",
          "type": "address"
        },
        {
          "internalType": "uint256",
          "name": "amount",
          "type": "uint256"
        }
      ],
      "name": "approve",
      "outputs": [
        {
          "internalType": "bool",
          "name": "",
          "type": "bool"
        }
      ],
      "stateMutability": "nonpayable",
      "type": "function"
    },
    {
      "inputs": [
        {
          "internalType": "address",
          "name": "account",
          "type": "address"
        }
      ],
      "name": "balanceOf",
      "outputs": [
        {
          "internalType": "uint256",
          "name": "",
          "type": "uint256"
        }
      ],
      "stateMutability": "view",
      "type": "function",
      "constant": true
    },
    {
      "inputs": [
        {
          "internalType": "address",
          "name": "spender",
          "type": "address"
        },
        {
          "internalType": "uint256",
          "name": "subtractedValue",
          "type": "uint256"
        }
      ],
      "name": "decreaseAllowance",
      "outputs": [
        {
          "internalType": "bool",
          "name": "",
          "type": "bool"
        }
      ],
      "stateMutability": "nonpayable",
      "type": "function"
    },
    {
      "inputs": [],
      "name": "devWallet",
      "outputs": [
        {
          "internalType": "address",
          "name": "",
          "type": "address"
        }
      ],
      "stateMutability": "view",
      "type": "function",
      "constant": true
    },
    {
      "inputs": [
        {
          "internalType": "address",
          "name": "spender",
          "type": "address"
        },
        {
          "internalType": "uint256",
          "name": "addedValue",
          "type": "uint256"
        }
      ],
      "name": "increaseAllowance",
      "outputs": [
        {
          "internalType": "bool",
          "name": "",
          "type": "bool"
        }
      ],
      "stateMutability": "nonpayable",
      "type": "function"
    },
    {
      "inputs": [],
      "name": "name",
      "outputs": [
        {
          "internalType": "string",
          "name": "",
          "type": "string"
        }
      ],
      "stateMutability": "view",
      "type": "function",
      "constant": true
    },
    {
      "inputs": [],
      "name": "owner",
      "outputs": [
        {
          "internalType": "address",
          "name": "",
          "type": "address"
        }
      ],
      "stateMutability": "view",
      "type": "function",
      "constant": true
    },
    {
      "inputs": [],
      "name": "renounceOwnership",
      "outputs": [],
      "stateMutability": "nonpayable",
      "type": "function"
    },
    {
      "inputs": [],
      "name": "symbol",
      "outputs": [
        {
          "internalType": "string",
          "name": "",
          "type": "string"
        }
      ],
      "stateMutability": "view",
      "type": "function",
      "constant": true
    },
    {
      "inputs": [],
      "name": "totalSupply",
      "outputs": [
        {
          "internalType": "uint256",
          "name": "",
          "type": "uint256"
        }
      ],
      "stateMutability": "view",
      "type": "function",
      "constant": true
    },
    {
      "inputs": [],
      "name": "transactionFee",
      "outputs": [
        {
          "internalType": "uint256",
          "name": "",
          "type": "uint256"
        }
      ],
      "stateMutability": "view",
      "type": "function",
      "constant": true
    },
    {
      "inputs": [
        {
          "internalType": "address",
          "name": "newOwner",
          "type": "address"
        }
      ],
      "name": "transferOwnership",
      "outputs": [],
      "stateMutability": "nonpayable",
      "type": "function"
    },
    {
      "inputs": [],
      "name": "vestingVault",
      "outputs": [
        {
          "internalType": "address",
          "name": "",
          "type": "address"
        }
      ],
      "stateMutability": "view",
      "type": "function",
      "constant": true
    },
    {
      "inputs": [
        {
          "internalType": "address",
          "name": "stakingContract",
          "type": "address"
        },
        {
          "internalType": "uint256",
          "name": "amount",
          "type": "uint256"
        }
      ],
      "name": "approveStakingContract",
      "outputs": [],
      "stateMutability": "nonpayable",
      "type": "function"
    },
    {
      "inputs": [],
      "name": "decimals",
      "outputs": [
        {
          "internalType": "uint8",
          "name": "",
          "type": "uint8"
        }
      ],
      "stateMutability": "view",
      "type": "function",
      "constant": true
    },
    {
      "inputs": [
        {
          "internalType": "address",
          "name": "to",
          "type": "address"
        },
        {
          "internalType": "uint256",
          "name": "amount",
          "type": "uint256"
        }
      ],
      "name": "transfer",
      "outputs": [
        {
          "internalType": "bool",
          "name": "",
          "type": "bool"
        }
      ],
      "stateMutability": "nonpayable",
      "type": "function"
    },
    {
      "inputs": [
        {
          "internalType": "address",
          "name": "from",
          "type": "address"
        },
        {
          "internalType": "address",
          "name": "to",
          "type": "address"
        },
        {
          "internalType": "uint256",
          "name": "amount",
          "type": "uint256"
        }
      ],
      "name": "transferFrom",
      "outputs": [
        {
          "internalType": "bool",
          "name": "",
          "type": "bool"
        }
      ],
      "stateMutability": "nonpayable",
      "type": "function"
    },
    {
      "inputs": [
        {
          "internalType": "address",
          "name": "account",
          "type": "address"
        },
        {
          "internalType": "bool",
          "name": "excluded",
          "type": "bool"
        }
      ],
      "name": "setExcludeFromFee",
      "outputs": [],
      "stateMutability": "nonpayable",
      "type": "function"
    },
    {
      "inputs": [
        {
          "internalType": "uint256",
          "name": "feeBasisPoints",
          "type": "uint256"
        }
      ],
      "name": "setTransactionFee",
      "outputs": [],
      "stateMutability": "nonpayable",
      "type": "function"
    }
  ],
  "bytecode": "0x6080604052606460085534801562000015575f80fd5b50604051620013f3380380620013f38339810160408190526200003891620003c9565b6040518060400160405280600a815260200169536d6f6b6965204a6f6560b01b8152506040518060400160405280600381526020016229a6a560e91b8152508160039081620000889190620004af565b506004620000978282620004af565b505050620000b4620000ae6200027160201b60201c565b62000275565b6001600160a01b038216620001105760405162461bcd60e51b815260206004820152601a60248201527f496e76616c6964206465762077616c6c6574206164647265737300000000000060448201526064015b60405180910390fd5b6001600160a01b038116620001685760405162461bcd60e51b815260206004820152601d60248201527f496e76616c69642076657374696e67207661756c742061646472657373000000604482015260640162000107565b600680546001600160a01b038085166001600160a01b03199283161790925560078054928416929091169190911790555f6064620001b36a084595161401484a000000601e6200058b565b620001bf9190620005ab565b90505f620001d9826a084595161401484a000000620005cb565b9050620001e78383620002c6565b620001f33382620002c6565b600160095f6200020b6005546001600160a01b031690565b6001600160a01b03908116825260208083019390935260409182015f908120805495151560ff1996871617905560065482168152600990935281832080548516600190811790915560075490911683529120805490921617905550620005f79350505050565b3390565b600580546001600160a01b038381166001600160a01b0319831681179093556040519116919082907f8be0079c531659141344cd1fd0a4f28419497f9722a3daafe3b4186f6b6457e0905f90a35050565b6001600160a01b0382166200031e5760405162461bcd60e51b815260206004820152601f60248201527f45524332303a206d696e7420746f20746865207a65726f206164647265737300604482015260640162000107565b8060025f828254620003319190620005e1565b90915550506001600160a01b0382165f90815260208190526040812080548392906200035f908490620005e1565b90915550506040518181526001600160a01b038316905f907fddf252ad1be2c89b69c2b068fc378daa952ba7f163c4a11628f55a4df523b3ef9060200160405180910390a35050565b505050565b80516001600160a01b0381168114620003c4575f80fd5b919050565b5f805f60608486031215620003dc575f80fd5b620003e784620003ad565b9250620003f760208501620003ad565b91506200040760408501620003ad565b90509250925092565b634e487b7160e01b5f52604160045260245ffd5b600181811c908216806200043957607f821691505b6020821081036200045857634e487b7160e01b5f52602260045260245ffd5b50919050565b601f821115620003a8575f81815260208120601f850160051c81016020861015620004865750805b601f850160051c820191505b81811015620004a75782815560010162000492565b505050505050565b81516001600160401b03811115620004cb57620004cb62000410565b620004e381620004dc845462000424565b846200045e565b602080601f83116001811462000519575f8415620005015750858301515b5f19600386901b1c1916600185901b178555620004a7565b5f85815260208120601f198616915b82811015620005495788860151825594840194600190910190840162000528565b50858210156200056757878501515f19600388901b60f8161c191681555b5050505050600190811b01905550565b634e487b7160e01b5f52601160045260245ffd5b8082028115828204841417620005a557620005a562000577565b92915050565b5f82620005c657634e487b7160e01b5f52601260045260245ffd5b500490565b81810381811115620005a557620005a562000577565b80820180821115620005a557620005a562000577565b610dee80620006055f395ff3fe608060405234801561000f575f80fd5b5060043610610127575f3560e01c80638ea5220f116100a9578063a9059cbb1161006e578063a9059cbb14610267578063af9549e01461027a578063dd62ed3e1461028d578063e0493121146102c5578063f2fde38b146102d8575f80fd5b80638ea5220f1461021d57806395d89b41146102305780639ed3edf014610238578063a457c2d714610241578063a5917baf14610254575f80fd5b8063313ce567116100ef578063313ce567146101a657806339509351146101b557806370a08231146101c8578063715018a6146101f05780638da5cb5b146101f8575f80fd5b806306fdde031461012b578063095ea7b314610149578063096a8ab71461016c57806318160ddd1461018157806323b872dd14610193575b5f80fd5b6101336102eb565b6040516101409190610b73565b60405180910390f35b61015c610157366004610bd9565b61037b565b6040519015158152602001610140565b61017f61017a366004610c01565b610394565b005b6002545b604051908152602001610140565b61015c6101a1366004610c18565b61041e565b60405160108152602001610140565b61015c6101c3366004610bd9565b6104c6565b6101856101d6366004610c51565b6001600160a01b03165f9081526020819052604090205490565b61017f610504565b6005546001600160a01b03165b6040516001600160a01b039091168152602001610140565b600654610205906001600160a01b031681565b610133610539565b61018560085481565b61015c61024f366004610bd9565b610548565b600754610205906001600160a01b031681565b61015c610275366004610bd9565b6105e4565b61017f610288366004610c71565b61066a565b61018561029b366004610caa565b6001600160a01b039182165f90815260016020908152604080832093909416825291909152205490565b61017f6102d3366004610bd9565b6106be565b61017f6102e6366004610c51565b610708565b6060600380546102fa90610cdb565b80601f016020809104026020016040519081016040528092919081815260200182805461032690610cdb565b80156103715780601f1061034857610100808354040283529160200191610371565b820191905f5260205f20905b81548152906001019060200180831161035457829003601f168201915b5050505050905090565b5f336103888185856107a3565b60019150505b92915050565b6005546001600160a01b031633146103c75760405162461bcd60e51b81526004016103be90610d13565b60405180910390fd5b6101f48111156104195760405162461bcd60e51b815260206004820152601a60248201527f4665652063616e6e6f74206265206d6f7265207468616e20352500000000000060448201526064016103be565b600855565b5f3361042b8582856108c6565b6001600160a01b0385165f9081526009602052604081205460ff1615801561046b57506001600160a01b0385165f9081526009602052604090205460ff16155b156104a657612710600854856104819190610d5c565b61048b9190610d73565b6006549091506104a69087906001600160a01b031683610956565b6104ba86866104b58488610d92565b610956565b50600195945050505050565b335f8181526001602090815260408083206001600160a01b038716845290915281205490919061038890829086906104ff908790610da5565b6107a3565b6005546001600160a01b0316331461052e5760405162461bcd60e51b81526004016103be90610d13565b6105375f610b22565b565b6060600480546102fa90610cdb565b335f8181526001602090815260408083206001600160a01b0387168452909152812054909190838110156105cc5760405162461bcd60e51b815260206004820152602560248201527f45524332303a2064656372656173656420616c6c6f77616e63652062656c6f77604482015264207a65726f60d81b60648201526084016103be565b6105d982868684036107a3565b506001949350505050565b335f81815260096020526040812054909190829060ff1615801561062057506001600160a01b0385165f9081526009602052604090205460ff16155b1561065b57612710600854856106369190610d5c565b6106409190610d73565b60065490915061065b9083906001600160a01b031683610956565b6105d982866104b58488610d92565b6005546001600160a01b031633146106945760405162461bcd60e51b81526004016103be90610d13565b6001600160a01b03919091165f908152600960205260409020805460ff1916911515919091179055565b6005546001600160a01b031633146106e85760405162461bcd60e51b81526004016103be90610d13565b6107046106fd6005546001600160a01b031690565b83836107a3565b5050565b6005546001600160a01b031633146107325760405162461bcd60e51b81526004016103be90610d13565b6001600160a01b0381166107975760405162461bcd60e51b815260206004820152602660248201527f4f776e61626c653a206e6577206f776e657220697320746865207a65726f206160448201526564647265737360d01b60648201526084016103be565b6107a081610b22565b50565b6001600160a01b0383166108055760405162461bcd60e51b8152602060048201526024808201527f45524332303a20617070726f76652066726f6d20746865207a65726f206164646044820152637265737360e01b60648201526084016103be565b6001600160a01b0382166108665760405162461bcd60e51b815260206004820152602260248201527f45524332303a20617070726f766520746f20746865207a65726f206164647265604482015261737360f01b60648201526084016103be565b6001600160a01b038381165f8181526001602090815260408083209487168084529482529182902085905590518481527f8c5be1e5ebec7d5bd14f71427d1e84f3dd0314c0f7b2291e5b200ac8c7c3b925910160405180910390a3505050565b6001600160a01b038381165f908152600160209081526040808320938616835292905220545f19811461095057818110156109435760405162461bcd60e51b815260206004820152601d60248201527f45524332303a20696e73756666696369656e7420616c6c6f77616e636500000060448201526064016103be565b61095084848484036107a3565b50505050565b6001600160a01b0383166109ba5760405162461bcd60e51b815260206004820152602560248201527f45524332303a207472616e736665722066726f6d20746865207a65726f206164604482015264647265737360d81b60648201526084016103be565b6001600160a01b038216610a1c5760405162461bcd60e51b815260206004820152602360248201527f45524332303a207472616e7366657220746f20746865207a65726f206164647260448201526265737360e81b60648201526084016103be565b6001600160a01b0383165f9081526020819052604090205481811015610a935760405162461bcd60e51b815260206004820152602660248201527f45524332303a207472616e7366657220616d6f756e7420657863656564732062604482015265616c616e636560d01b60648201526084016103be565b6001600160a01b038085165f90815260208190526040808220858503905591851681529081208054849290610ac9908490610da5565b92505081905550826001600160a01b0316846001600160a01b03167fddf252ad1be2c89b69c2b068fc378daa952ba7f163c4a11628f55a4df523b3ef84604051610b1591815260200190565b60405180910390a3610950565b600580546001600160a01b038381166001600160a01b0319831681179093556040519116919082907f8be0079c531659141344cd1fd0a4f28419497f9722a3daafe3b4186f6b6457e0905f90a35050565b5f6020808352835180828501525f5b81811015610b9e57858101830151858201604001528201610b82565b505f604082860101526040601f19601f8301168501019250505092915050565b80356001600160a01b0381168114610bd4575f80fd5b919050565b5f8060408385031215610bea575f80fd5b610bf383610bbe565b946020939093013593505050565b5f60208284031215610c11575f80fd5b5035919050565b5f805f60608486031215610c2a575f80fd5b610c3384610bbe565b9250610c4160208501610bbe565b9150604084013590509250925092565b5f60208284031215610c61575f80fd5b610c6a82610bbe565b9392505050565b5f8060408385031215610c82575f80fd5b610c8b83610bbe565b915060208301358015158114610c9f575f80fd5b809150509250929050565b5f8060408385031215610cbb575f80fd5b610cc483610bbe565b9150610cd260208401610bbe565b90509250929050565b600181811c90821680610cef57607f821691505b602082108103610d0d57634e487b7160e01b5f52602260045260245ffd5b50919050565b6020808252818101527f4f776e61626c653a2063616c6c6572206973206e6f7420746865206f776e6572604082015260600190565b634e487b7160e01b5f52601160045260245ffd5b808202811582820484141761038e5761038e610d48565b5f82610d8d57634e487b7160e01b5f52601260045260245ffd5b500490565b8181038181111561038e5761038e610d48565b8082018082111561038e5761038e610d4856fea2646970667358221220694193e8b7eb0f40a84197869372cceb9f329a6f1cae60ca2f939c1b1e5af17a64736f6c63430008140033",
  "immutableReferences": {},
  "source": "// SPDX-License-Identifier: MIT\npragma solidity ^0.8.20;\n/**\n * @dev Interface of the ERC20 standard as defined in the EIP.\n */\ninterface IERC20 {\n    /**\n     * @dev Returns the amount of tokens in existence.\n     */\n    function totalSupply() external view returns (uint256);\n    /**\n     * @dev Returns the amount of tokens owned by `account`.\n     */\n    function balanceOf(address account) external view returns (uint256);\n    /**\n     * @dev Moves `amount` tokens from the caller's account to `to`.\n     *\n     * Returns a boolean value indicating whether the operation succeeded.\n     *\n     * Emits a {Transfer} event.\n     */\n    function transfer(address to, uint256 amount) external returns (bool);\n    /**\n     * @dev Returns the remaining number of tokens that `spender` will be\n     * allowed to spend on behalf of `owner` through {transferFrom}. This is\n     * zero by default.\n     *\n     * This value changes when {approve} or {transferFrom} are called.\n     */\n    function allowance(address owner, address spender) external view returns (uint256);\n    /**\n     * @dev Sets `amount` as the allowance of `spender` over the caller's tokens.\n     *\n     * Returns a boolean value indicating whether the operation succeeded.\n     *\n     * IMPORTANT: Beware that changing an allowance with this method brings the risk\n     * that someone may use both the old and the new allowance by unfortunate\n     * transaction ordering. One possible solution to mitigate this race\n     * condition is to first reduce the spender's allowance to 0 and set the\n     * desired value afterwards:\n     * https://github.com/ethereum/EIPs/issues/20#issuecomment-263524729\n     *\n     * Emits an {Approval} event.\n     */\n    function approve(address spender, uint256 amount) external returns (bool);\n    /**\n     * @dev Moves `amount` tokens from `from` to `to` using the\n     * allowance mechanism. `amount` is then deducted from the caller's\n     * allowance.\n     *\n     * Returns a boolean value indicating whether the operation succeeded.\n     *\n     * Emits a {Transfer} event.\n     */\n    function transferFrom(\n        address from,\n        address to,\n        uint256 amount\n    ) external returns (bool);\n    /**\n     * @dev Emitted when `value` tokens are moved from one account (`from`) to\n     * another (`to`).\n     *\n     * Note that `value` may be zero.\n     */\n    event Transfer(address indexed from, address indexed to, uint256 value);\n    /**\n     * @dev Emitted when the allowance of a `spender` for an `owner` is set by\n     * a call to {approve}. `value` is the new allowance.\n     */\n    event Approval(address indexed owner, address indexed spender, uint256 value);\n}\n/**\n * @dev Interface for the optional metadata functions from the ERC20 standard.\n *\n * _Available since v4.1._\n */\ninterface IERC20Metadata is IERC20 {\n    /**\n     * @dev Returns the name of the token.\n     */\n    function name() external view returns (string memory);\n    /**\n     * @dev Returns the symbol of the token.\n     */\n    function symbol() external view returns (string memory);\n    /**\n     * @dev Returns the decimals places of the token.\n     */\n    function decimals() external view returns (uint8);\n}\n/**\n * @dev Provides information about the current execution context, including the\n * sender of the transaction and its data. While these are generally available\n * via msg.sender and msg.data, they should not be accessed in such a direct\n * manner, since when dealing with meta-transactions the account sending and\n * paying for execution may not be the actual sender (as far as an application\n * is concerned).\n *\n * This contract is only required for intermediate, library-like contracts.\n */\nabstract contract Context {\n    function _msgSender() internal view virtual returns (address) {\n        return msg.sender;\n    }\n    function _msgData() internal view virtual returns (bytes calldata) {\n        return msg.data;\n    }\n}\n/**\n * @dev Implementation of the {IERC20} interface.\n *\n * This implementation is agnostic to the way tokens are created. This means\n * that a supply mechanism has to be added in a derived contract using {_mint}.\n * For a generic mechanism see {ERC20PresetMinterPauser}.\n *\n * TIP: For a detailed writeup see our guide\n * https://forum.zeppelin.solutions/t/how-to-implement-erc20-supply-mechanisms/226[How\n * to implement supply mechanisms].\n *\n * We have followed general OpenZeppelin Contracts guidelines: functions revert\n * instead returning `false` on failure. This behavior is nonetheless\n * conventional and does not conflict with the expectations of ERC20\n * applications.\n *\n * Additionally, an {Approval} event is emitted on calls to {transferFrom}.\n * This allows applications to reconstruct the allowance for all accounts just\n * by listening to said events. Other implementations of the EIP may not emit\n * these events, as it isn't required by the specification.\n *\n * Finally, the non-standard {decreaseAllowance} and {increaseAllowance}\n * functions have been added to mitigate the well-known issues around setting\n * allowances. See {IERC20-approve}.\n */\ncontract ERC20 is Context, IERC20, IERC20Metadata {\n    mapping(address => uint256) private _balances;\n    mapping(address => mapping(address => uint256)) private _allowances;\n    uint256 private _totalSupply;\n    string private _name;\n    string private _symbol;\n    /**\n     * @dev Sets the values for {name} and {symbol}.\n     *\n     * The default value of {decimals} is 18. To select a different value for\n     * {decimals} you should overload it.\n     *\n     * All two of these values are immutable: they can only be set once during\n     * construction.\n     */\n    constructor(string memory name_, string memory symbol_) {\n        _name = name_;\n        _symbol = symbol_;\n    }\n    /**\n     * @dev Returns the name of the token.\n     */\n    function name() public view virtual override returns (string memory) {\n        return _name;\n    }\n    /**\n     * @dev Returns the symbol of the token, usually a shorter version of the\n     * name.\n     */\n    function symbol() public view virtual override returns (string memory) {\n        return _symbol;\n    }\n    /**\n     * @dev Returns the number of decimals used to get its user representation.\n     * For example, if `decimals` equals `2`, a balance of `505` tokens should\n     * be displayed to a user as `5.05` (`505 / 10 ** 2`).\n     *\n     * Tokens usually opt for a value of 18, imitating the relationship between\n     * Ether and Wei. This is the value {ERC20} uses, unless this function is\n     * overridden;\n     *\n     * NOTE: This information is only used for _display_ purposes: it in\n     * no way affects any of the arithmetic of the contract, including\n     * {IERC20-balanceOf} and {IERC20-transfer}.\n     */\n    function decimals() public view virtual override returns (uint8) {\n        return 18;\n    }\n    /**\n     * @dev See {IERC20-totalSupply}.\n     */\n    function totalSupply() public view virtual override returns (uint256) {\n        return _totalSupply;\n    }\n    /**\n     * @dev See {IERC20-balanceOf}.\n     */\n    function balanceOf(address account) public view virtual override returns (uint256) {\n        return _balances[account];\n    }\n    /**\n     * @dev See {IERC20-transfer}.\n     *\n     * Requirements:\n     *\n     * - `to` cannot be the zero address.\n     * - the caller must have a balance of at least `amount`.\n     */\n    function transfer(address to, uint256 amount) public virtual override returns (bool) {\n        address owner = _msgSender();\n        _transfer(owner, to, amount);\n        return true;\n    }\n    /**\n     * @dev See {IERC20-allowance}.\n     */\n    function allowance(address owner, address spender) public view virtual override returns (uint256) {\n        return _allowances[owner][spender];\n    }\n    /**\n     * @dev See {IERC20-approve}.\n     *\n     * NOTE: If `amount` is the maximum `uint256`, the allowance is not updated on\n     * `transferFrom`. This is semantically equivalent to an infinite approval.\n     *\n     * Requirements:\n     *\n     * - `spender` cannot be the zero address.\n     */\n    function approve(address spender, uint256 amount) public virtual override returns (bool) {\n        address owner = _msgSender();\n        _approve(owner, spender, amount);\n        return true;\n    }\n    /**\n     * @dev See {IERC20-transferFrom}.\n     *\n     * Emits an {Approval} event indicating the updated allowance. This is not\n     * required by the EIP. See the note at the beginning of {ERC20}.\n     *\n     * NOTE: Does not update the allowance if the current allowance\n     * is the maximum `uint256`.\n     *\n     * Requirements:\n     *\n     * - `from` and `to` cannot be the zero address.\n     * - `from` must have a balance of at least `amount`.\n     * - the caller must have allowance for ``from``'s tokens of at least\n     * `amount`.\n     */\n    function transferFrom(\n        address from,\n        address to,\n        uint256 amount\n    ) public virtual override returns (bool) {\n        address spender = _msgSender();\n        _spendAllowance(from, spender, amount);\n        _transfer(from, to, amount);\n        return true;\n    }\n    /**\n     * @dev Atomically increases the allowance granted to `spender` by the caller.\n     *\n     * This is an alternative to {approve} that can be used as a mitigation for\n     * problems described in {IERC20-approve}.\n     *\n     * Emits an {Approval} event indicating the updated allowance.\n     *\n     * Requirements:\n     *\n     * - `spender` cannot be the zero address.\n     */\n    function increaseAllowance(address spender, uint256 addedValue) public virtual returns (bool) {\n        address owner = _msgSender();\n        _approve(owner, spender, _allowances[owner][spender] + addedValue);\n        return true;\n    }\n    /**\n     * @dev Atomically decreases the allowance granted to `spender` by the caller.\n     *\n     * This is an alternative to {approve} that can be used as a mitigation for\n     * problems described in {IERC20-approve}.\n     *\n     * Emits an {Approval} event indicating the updated allowance.\n     *\n     * Requirements:\n     *\n     * - `spender` cannot be the zero address.\n     * - `spender` must have allowance for the caller of at least\n     * `subtractedValue`.\n     */\n    function decreaseAllowance(address spender, uint256 subtractedValue) public virtual returns (bool) {\n        address owner = _msgSender();\n        uint256 currentAllowance = _allowances[owner][spender];\n        require(currentAllowance >= subtractedValue, \"ERC20: decreased allowance below zero\");\n        unchecked {\n            _approve(owner, spender, currentAllowance - subtractedValue);\n        }\n        return true;\n    }\n    /**\n     * @dev Moves `amount` of tokens from `sender` to `recipient`.\n     *\n     * This internal function is equivalent to {transfer}, and can be used to\n     * e.g. implement automatic token fees, slashing mechanisms, etc.\n     *\n     * Emits a {Transfer} event.\n     *\n     * Requirements:\n     *\n     * - `from` cannot be the zero address.\n     * - `to` cannot be the zero address.\n     * - `from` must have a balance of at least `amount`.\n     */\n    function _transfer(\n        address from,\n        address to,\n        uint256 amount\n    ) internal virtual {\n        require(from != address(0), \"ERC20: transfer from the zero address\");\n        require(to != address(0), \"ERC20: transfer to the zero address\");\n        _beforeTokenTransfer(from, to, amount);\n        uint256 fromBalance = _balances[from];\n        require(fromBalance >= amount, \"ERC20: transfer amount exceeds balance\");\n        unchecked {\n            _balances[from] = fromBalance - amount;\n        }\n        _balances[to] += amount;\n        emit Transfer(from, to, amount);\n        _afterTokenTransfer(from, to, amount);\n    }\n    /** @dev Creates `amount` tokens and assigns them to `account`, increasing\n     * the total supply.\n     *\n     * Emits a {Transfer} event with `from` set to the zero address.\n     *\n     * Requirements:\n     *\n     * - `account` cannot be the zero address.\n     */\n    function _mint(address account, uint256 amount) internal virtual {\n        require(account != address(0), \"ERC20: mint to the zero address\");\n        _beforeTokenTransfer(address(0), account, amount);\n        _totalSupply += amount;\n        _balances[account] += amount;\n        emit Transfer(address(0), account, amount);\n        _afterTokenTransfer(address(0), account, amount);\n    }\n    /**\n     * @dev Destroys `amount` tokens from `account`, reducing the\n     * total supply.\n     *\n     * Emits a {Transfer} event with `to` set to the zero address.\n     *\n     * Requirements:\n     *\n     * - `account` cannot be the zero address.\n     * - `account` must have at least `amount` tokens.\n     */\n    function _burn(address account, uint256 amount) internal virtual {\n        require(account != address(0), \"ERC20: burn from the zero address\");\n        _beforeTokenTransfer(account, address(0), amount);\n        uint256 accountBalance = _balances[account];\n        require(accountBalance >= amount, \"ERC20: burn amount exceeds balance\");\n        unchecked {\n            _balances[account] = accountBalance - amount;\n        }\n        _totalSupply -= amount;\n        emit Transfer(account, address(0), amount);\n        _afterTokenTransfer(account, address(0), amount);\n    }\n    /**\n     * @dev Sets `amount` as the allowance of `spender` over the `owner` s tokens.\n     *\n     * This internal function is equivalent to `approve`, and can be used to\n     * e.g. set automatic allowances for certain subsystems, etc.\n     *\n     * Emits an {Approval} event.\n     *\n     * Requirements:\n     *\n     * - `owner` cannot be the zero address.\n     * - `spender` cannot be the zero address.\n     */\n    function _approve(\n        address owner,\n        address spender,\n        uint256 amount\n    ) internal virtual {\n        require(owner != address(0), \"ERC20: approve from the zero address\");\n        require(spender != address(0), \"ERC20: approve to the zero address\");\n        _allowances[owner][spender] = amount;\n        emit Approval(owner, spender, amount);\n    }\n    /**\n     * @dev Spend `amount` form the allowance of `owner` toward `spender`.\n     *\n     * Does not update the allowance amount in case of infinite allowance.\n     * Revert if not enough allowance is available.\n     *\n     * Might emit an {Approval} event.\n     */\n    function _spendAllowance(\n        address owner,\n        address spender,\n        uint256 amount\n    ) internal virtual {\n        uint256 currentAllowance = allowance(owner, spender);\n        if (currentAllowance != type(uint256).max) {\n            require(currentAllowance >= amount, \"ERC20: insufficient allowance\");\n            unchecked {\n                _approve(owner, spender, currentAllowance - amount);\n            }\n        }\n    }\n    /**\n     * @dev Hook that is called before any transfer of tokens. This includes\n     * minting and burning.\n     *\n     * Calling conditions:\n     *\n     * - when `from` and `to` are both non-zero, `amount` of ``from``'s tokens\n     * will be transferred to `to`.\n     * - when `from` is zero, `amount` tokens will be minted for `to`.\n     * - when `to` is zero, `amount` of ``from``'s tokens will be burned.\n     * - `from` and `to` are never both zero.\n     *\n     * To learn more about hooks, head to xref:ROOT:extending-contracts.adoc#using-hooks[Using Hooks].\n     */\n    function _beforeTokenTransfer(\n        address from,\n        address to,\n        uint256 amount\n    ) internal virtual {}\n    /**\n     * @dev Hook that is called after any transfer of tokens. This includes\n     * minting and burning.\n     *\n     * Calling conditions:\n     *\n     * - when `from` and `to` are both non-zero, `amount` of ``from``'s tokens\n     * has been transferred to `to`.\n     * - when `from` is zero, `amount` tokens have been minted for `to`.\n     * - when `to` is zero, `amount` of ``from``'s tokens have been burned.\n     * - `from` and `to` are never both zero.\n     *\n     * To learn more about hooks, head to xref:ROOT:extending-contracts.adoc#using-hooks[Using Hooks].\n     */\n    function _afterTokenTransfer(\n        address from,\n        address to,\n        uint256 amount\n    ) internal virtual {}\n}\n/**\n * @dev Contract module which provides a basic access control mechanism, where\n * there is an account (an owner) that can be granted exclusive access to\n * specific functions.\n *\n * By default, the owner account will be the one that deploys the contract. This\n * can later be changed with {transferOwnership}.\n *\n * This module is used through inheritance. It will make available the modifier\n * `onlyOwner`, which can be applied to your functions to restrict their use to\n * the owner.\n */\nabstract contract Ownable is Context {\n    address private _owner;\n    event OwnershipTransferred(address indexed previousOwner, address indexed newOwner);\n    /**\n     * @dev Initializes the contract setting the deployer as the initial owner.\n     */\n    constructor() {\n        _transferOwnership(_msgSender());\n    }\n    /**\n     * @dev Returns the address of the current owner.\n     */\n    function owner() public view virtual returns (address) {\n        return _owner;\n    }\n    /**\n     * @dev Throws if called by any account other than the owner.\n     */\n    modifier onlyOwner() {\n        require(owner() == _msgSender(), \"Ownable: caller is not the owner\");\n        _;\n    }\n    /**\n     * @dev Leaves the contract without owner. It will not be possible to call\n     * `onlyOwner` functions anymore. Can only be called by the current owner.\n     *\n     * NOTE: Renouncing ownership will leave the contract without an owner,\n     * thereby removing any functionality that is only available to the owner.\n     */\n    function renounceOwnership() public virtual onlyOwner {\n        _transferOwnership(address(0));\n    }\n    /**\n     * @dev Transfers ownership of the contract to a new account (`newOwner`).\n     * Can only be called by the current owner.\n     */\n    function transferOwnership(address newOwner) public virtual onlyOwner {\n        require(newOwner != address(0), \"Ownable: new owner is the zero address\");\n        _transferOwnership(newOwner);\n    }\n    /**\n     * @dev Transfers ownership of the contract to a new account (`newOwner`).\n     * Internal function without access restriction.\n     */\n    function _transferOwnership(address newOwner) internal virtual {\n        address oldOwner = _owner;\n        _owner = newOwner;\n        emit OwnershipTransferred(oldOwner, newOwner);\n    }\n}\n\ncontract SmokieJoe is ERC20, Ownable {\n    uint256 private constant MAX_SUPPLY = 1_000_000_000 * 10 ** 16; // 1 Billion tokens with 16 decimals\n    address public devWallet;\n    address public vestingVault; \n    uint256 public transactionFee = 100; // Fee in basis points (1% = 100 basis points)\n    mapping(address => bool) private _isExcludedFromFee;\n    constructor(\n        address initialOwner,  // Added the owner address\n        address _devWallet,\n        address _vestingVault\n    ) ERC20(\"Smokie Joe\", \"SMJ\") Ownable() {  // Pass the owner address to Ownable\n        require(_devWallet != address(0), \"Invalid dev wallet address\");\n        require(_vestingVault != address(0), \"Invalid vesting vault address\");\n        devWallet = _devWallet;\n        vestingVault = _vestingVault;\n        uint256 vestingAmount = (MAX_SUPPLY * 30) / 100; // 30% to vesting vault\n        uint256 ownerAmount = MAX_SUPPLY - vestingAmount; // 70% to owner wallet\n        _mint(_vestingVault, vestingAmount); // Send 30% to vesting vault\n        _mint(msg.sender, ownerAmount); // Send 70% to owner\n        // Exclude dev wallet and owner from transaction fees\n        _isExcludedFromFee[owner()] = true;\n        _isExcludedFromFee[devWallet] = true;\n        _isExcludedFromFee[vestingVault] = true;\n    }\n    // Set allowance for staking contract to use for reward payouts\n    function approveStakingContract(address stakingContract, uint256 amount) external onlyOwner {\n        _approve(owner(), stakingContract, amount);\n    }\n    function decimals() public view virtual override returns (uint8) {\n        return 16; // Override to use 16 decimals\n    }\n    function transfer(address to, uint256 amount) public virtual override returns (bool) {\n        address sender = _msgSender();\n        uint256 fee = 0;\n        // Calculate fee if not excluded\n        if (!_isExcludedFromFee[sender] && !_isExcludedFromFee[to]) {\n            fee = (amount * transactionFee) / 10000; // Calculate fee\n            _transfer(sender, devWallet, fee); // Transfer fee to dev wallet\n        }\n        // Transfer remaining amount to recipient\n        _transfer(sender, to, amount - fee);\n        return true;\n    }\n    function transferFrom(address from, address to, uint256 amount) public virtual override returns (bool) {\n        address spender = _msgSender();\n        _spendAllowance(from, spender, amount);\n        uint256 fee = 0;\n        // Calculate fee if not excluded\n        if (!_isExcludedFromFee[from] && !_isExcludedFromFee[to]) {\n            fee = (amount * transactionFee) / 10000; // Calculate fee\n            _transfer(from, devWallet, fee); // Transfer fee to dev wallet\n        }\n        // Transfer remaining amount to recipient\n        _transfer(from, to, amount - fee);\n        return true;\n    }\n    function setExcludeFromFee(address account, bool excluded) external onlyOwner {\n        _isExcludedFromFee[account] = excluded;\n    }\n    function setTransactionFee(uint256 feeBasisPoints) external onlyOwner {\n        require(feeBasisPoints <= 500, \"Fee cannot be more than 5%\"); // Cap the fee at 5%\n        transactionFee = feeBasisPoints;\n    }\n}\n",
  "sourcePath": "/Users/warrenmason/Documents/smokingJoe/truffle-deploy/contracts/SmokieJoe.sol",
  "compiler": {
    "name": "solc",
    "version": "0.8.20+commit.a1b79de6.Emscripten.clang"
  },
  "schemaVersion": "3.4.16",
  "updatedAt": "2024-10-21T11:42:22.002Z",
  "networkType": "ethereum",
  "devdoc": {
    "events": {
      "Approval(address,address,uint256)": {
        "details": "Emitted when the allowance of a `spender` for an `owner` is set by a call to {approve}. `value` is the new allowance."
      },
      "Transfer(address,address,uint256)": {
        "details": "Emitted when `value` tokens are moved from one account (`from`) to another (`to`). Note that `value` may be zero."
      }
    },
    "kind": "dev",
    "methods": {
      "allowance(address,address)": {
        "details": "See {IERC20-allowance}."
      },
      "approve(address,uint256)": {
        "details": "See {IERC20-approve}. NOTE: If `amount` is the maximum `uint256`, the allowance is not updated on `transferFrom`. This is semantically equivalent to an infinite approval. Requirements: - `spender` cannot be the zero address."
      },
      "balanceOf(address)": {
        "details": "See {IERC20-balanceOf}."
      },
      "decimals()": {
        "details": "Returns the number of decimals used to get its user representation. For example, if `decimals` equals `2`, a balance of `505` tokens should be displayed to a user as `5.05` (`505 / 10 ** 2`). Tokens usually opt for a value of 18, imitating the relationship between Ether and Wei. This is the value {ERC20} uses, unless this function is overridden; NOTE: This information is only used for _display_ purposes: it in no way affects any of the arithmetic of the contract, including {IERC20-balanceOf} and {IERC20-transfer}."
      },
      "decreaseAllowance(address,uint256)": {
        "details": "Atomically decreases the allowance granted to `spender` by the caller. This is an alternative to {approve} that can be used as a mitigation for problems described in {IERC20-approve}. Emits an {Approval} event indicating the updated allowance. Requirements: - `spender` cannot be the zero address. - `spender` must have allowance for the caller of at least `subtractedValue`."
      },
      "increaseAllowance(address,uint256)": {
        "details": "Atomically increases the allowance granted to `spender` by the caller. This is an alternative to {approve} that can be used as a mitigation for problems described in {IERC20-approve}. Emits an {Approval} event indicating the updated allowance. Requirements: - `spender` cannot be the zero address."
      },
      "name()": {
        "details": "Returns the name of the token."
      },
      "owner()": {
        "details": "Returns the address of the current owner."
      },
      "renounceOwnership()": {
        "details": "Leaves the contract without owner. It will not be possible to call `onlyOwner` functions anymore. Can only be called by the current owner. NOTE: Renouncing ownership will leave the contract without an owner, thereby removing any functionality that is only available to the owner."
      },
      "symbol()": {
        "details": "Returns the symbol of the token, usually a shorter version of the name."
      },
      "totalSupply()": {
        "details": "See {IERC20-totalSupply}."
      },
      "transfer(address,uint256)": {
        "details": "See {IERC20-transfer}. Requirements: - `to` cannot be the zero address. - the caller must have a balance of at least `amount`."
      },
      "transferFrom(address,address,uint256)": {
        "details": "See {IERC20-transferFrom}. Emits an {Approval} event indicating the updated allowance. This is not required by the EIP. See the note at the beginning of {ERC20}. NOTE: Does not update the allowance if the current allowance is the maximum `uint256`. Requirements: - `from` and `to` cannot be the zero address. - `from` must have a balance of at least `amount`. - the caller must have allowance for ``from``'s tokens of at least `amount`."
      },
      "transferOwnership(address)": {
        "details": "Transfers ownership of the contract to a new account (`newOwner`). Can only be called by the current owner."
      }
    },
    "version": 1
  },
  "userdoc": {
    "kind": "user",
    "methods": {},
    "version": 1
  }
}